:020000040000FA
:0600000065EF02F01200A2
:020006000000F8
:08000800D9CFE6FFE1CFD9FFDB
:10001000040EE126FD0EDBCF14F0FE0EDBCF15F053
:10002000640E1502F3CF15F01402F3CF14F0F45060
:1000300015260D680E6A14C008F015C009F03FECD3
:1000400002F008C014F009C015F014C0DEFF15C09E
:10005000DDFF010EE76EFD0EDBCF16F0FE0EDBCFEF
:1000600017F0E7501626000E172216C008F017C02A
:1000700009F0DECF0DF0DDCF0EF021EC02F006C06E
:1000800014F007C015F0640E0D6E0E6A14C008F06F
:1000900015C009F03FEC02F008C014F009C015F0DB
:1000A000020E14C0DBFF030E15C0DBFF010ECA6E8B
:1000B0000C0EBD6E020EDB50BE6ECA92CA80CA84A0
:1000C000FD0EDB50CB6E146E040EE15C02E2E16AC1
:1000D000E552E16E1450E552E7CFD9FF1200D9CFB7
:1000E000E6FFE1CFD9FF040EE126DE6ADD6ADECF4E
:1000F00014F0DDCF15F0D890155004E6F40E145C22
:10010000010E155826E2020EDB6A030EDB6A020EB0
:10011000DBCF14F0030EDBCF15F0FD0EDBCF16F0B6
:10012000FE0EDBCF17F015501718E8AE02D01734CB
:1001300004D01650145C1750155806E2020EDB2A44
:10014000030E01E3DB2AE3D7DF2A010E01E3DB2AFA
:10015000CED7040EE15C02E2E16AE552E16EE552BF
:10016000E7CFD9FF1200D9CFE6FFE1CFD9FFFD0ECF
:10017000DBCFF6FFFE0EDBCFF7FF0800F55014E0F3
:10018000FD0EDBCFF6FFFE0EDBCFF7FF0800F550CC
:10019000E66E0ED8E5529EA8FED79E98FD0EDB2A8D
:1001A000FE0E01E3DB2AE3D7E552E7CFD9FF1200C9
:1001B000D9CFE6FFE1CFD9FFACA2FED7FE0EDB50D0
:1001C000AD6EE552E7CFD9FF1200D9CFE6FFE1CF00
:1001D000D9FFE6520F0EC16E800E946E956A190E0D
:1001E000AF6E240EAC6E900EAB6E9E0EE66E030EDE
:1001F000E66EB9DFE552E5528A0EE66E030EE66E54
:10020000B2DFE552E552760EE66E030EE66EABDF28
:10021000E552E552640EE66E030EE66EA4DFE5528B
:10022000E552530EE66E030EE66E9DDFE552E55293
:100230009EAAFED79EAA60D09E9AAE50DF6EDF5077
:10024000340A43E0070A27E0010A1BE0030A0FE033
:100250000A0EE66EE66A87DFE552E552040EE66EA8
:10026000030EE66E80DFE552E552836A45D0410E0B
:10027000E66E030EE66E77DFE552E5525A0E836EA8
:100280003BD02F0EE66E030EE66E6DDFE552E552B3
:10029000A50E836E31D01F0EE66E030EE66E63DF91
:1002A000E552E5528390839483828386839083947E
:1002B000839283968388838C310EE66EE66AA4DE91
:1002C000E552E552839A839E17D0100EE66E030E18
:1002D000E66E49DFE552E5528380838483928396FC
:1002E0008398839CC80EE66EE66A8EDEE552E55280
:1002F000838A838E01D09E9A9BD7E552E552E7CF41
:04030000D9FF12000F
:0C03040077726F6E6720696E7075740070
:100310006C65667420646972656374696F6E0072DF
:100320006967687420646972656374696F6E0072CE
:1003300065766572736520646972656374696F6E52
:1003400000666F72776172642064697265637469B4
:100350006F6E00342D6C6566742064697265637419
:10036000696F6E00332D7269676874206469726505
:100370006374696F6E00322D7265766572736520E5
:10038000646972656374696F6E00312D666F727790
:1003900061726420646972656374696F6E005052A3
:0403A000455353006E
:0C03A400060EF66E000EF76E000EF86EEE
:1003B00000010900F550656F0900F550666F03E113
:1003C000656701D03DD00900F550606F0900F55018
:1003D000616F0900F550626F09000900F550E96E80
:1003E0000900F550EA6E090009000900F550636F35
:1003F0000900F550646F09000900F6CF67F0F7CFE8
:1004000068F0F8CF69F060C0F6FF61C0F7FF62C026
:10041000F8FF0001635302E1645307E00900F5505F
:10042000EE6E6307F8E26407F9D767C0F6FF68C0AD
:10043000F7FF69C0F8FF00016507000E665BBFD7D4
:020440001200A8
:0E04420008C012F008500D02F4CF07F0F3CFFF
:1004500006F009500E02F4CF09F0F3CF08F00D02B8
:10046000F3500726F4500822E86A092212500E02BF
:0E047000F3500726F4500822E86A0922000C17
:02047E00056A0D
:10048000046A100EE76ED890083609360436053631
:100490000D50045C0E50055805E30D50045E0E50DF
:0A04A000055A082AE72EF0D71200D3
:0604AA00000EF36E00EEEF
:1004B00000F0060E01D81200EA6002D0EE6AFCD706
:0A04C000F350E9601200EE6AFCD769
:0604CA0015EE00F025EE26
:1004D00000F0F86A019CD2EC01F073EC02F0E5EC5C
:0604E00000F0FBD7120042
:0204E600120002
:00000001FF
